{
  "_format": "hh-sol-artifact-1",
  "contractName": "VRFCoordinatorMock",
  "sourceName": "contracts/mocks/VRFCoordinatorMock.sol",
  "abi": [
    {
      "inputs": [],
      "name": "VRFCoordinatorMock__FulfillRandomWordsFailed",
      "type": "error"
    },
    {
      "anonymous": false,
      "inputs": [
        {
          "indexed": false,
          "internalType": "uint256",
          "name": "requestId",
          "type": "uint256"
        },
        {
          "indexed": false,
          "internalType": "address",
          "name": "consumer",
          "type": "address"
        }
      ],
      "name": "RandomWordsFulfilled",
      "type": "event"
    },
    {
      "anonymous": false,
      "inputs": [
        {
          "indexed": false,
          "internalType": "bytes32",
          "name": "keyHash",
          "type": "bytes32"
        },
        {
          "indexed": false,
          "internalType": "uint256",
          "name": "requestId",
          "type": "uint256"
        },
        {
          "indexed": false,
          "internalType": "uint256",
          "name": "preSeed",
          "type": "uint256"
        },
        {
          "indexed": false,
          "internalType": "uint256",
          "name": "subId",
          "type": "uint256"
        },
        {
          "indexed": false,
          "internalType": "uint16",
          "name": "requestConfirmations",
          "type": "uint16"
        },
        {
          "indexed": false,
          "internalType": "uint32",
          "name": "callbackGasLimit",
          "type": "uint32"
        },
        {
          "indexed": false,
          "internalType": "uint32",
          "name": "numWords",
          "type": "uint32"
        },
        {
          "indexed": false,
          "internalType": "bytes",
          "name": "extraArgs",
          "type": "bytes"
        },
        {
          "indexed": false,
          "internalType": "address",
          "name": "sender",
          "type": "address"
        }
      ],
      "name": "RandomWordsRequested",
      "type": "event"
    },
    {
      "inputs": [
        {
          "internalType": "uint256",
          "name": "requestId",
          "type": "uint256"
        },
        {
          "internalType": "address",
          "name": "consumer",
          "type": "address"
        }
      ],
      "name": "fulfillRandomWords",
      "outputs": [],
      "stateMutability": "nonpayable",
      "type": "function"
    },
    {
      "inputs": [],
      "name": "requestCounter",
      "outputs": [
        {
          "internalType": "uint256",
          "name": "",
          "type": "uint256"
        }
      ],
      "stateMutability": "view",
      "type": "function"
    },
    {
      "inputs": [
        {
          "components": [
            {
              "internalType": "bytes32",
              "name": "keyHash",
              "type": "bytes32"
            },
            {
              "internalType": "uint256",
              "name": "subId",
              "type": "uint256"
            },
            {
              "internalType": "uint16",
              "name": "requestConfirmations",
              "type": "uint16"
            },
            {
              "internalType": "uint32",
              "name": "callbackGasLimit",
              "type": "uint32"
            },
            {
              "internalType": "uint32",
              "name": "numWords",
              "type": "uint32"
            },
            {
              "internalType": "bytes",
              "name": "extraArgs",
              "type": "bytes"
            }
          ],
          "internalType": "struct VRFV2PlusClient.RandomWordsRequest",
          "name": "_req",
          "type": "tuple"
        }
      ],
      "name": "requestRandomWords",
      "outputs": [
        {
          "internalType": "uint256",
          "name": "",
          "type": "uint256"
        }
      ],
      "stateMutability": "nonpayable",
      "type": "function"
    }
  ],
  "bytecode": "0x6080604052600160005534801561001557600080fd5b50610bb6806100256000396000f3fe608060405234801561001057600080fd5b50600436106100415760003560e01c8063808974ff14610046578063973a814e1461005b5780639b1c385e14610076575b600080fd5b61005961005436600461060f565b610089565b005b61006460005481565b60405190815260200160405180910390f35b610064610084366004610658565b61024a565b604080516001808252818301909252600091602080830190803683370190505090506001816000815181106100c0576100c06106c2565b60200260200101818152505060008273ffffffffffffffffffffffffffffffffffffffff1684836040516024016100f89291906106f1565b604080517fffffffffffffffffffffffffffffffffffffffffffffffffffffffffffffffe08184030181529181526020820180517bffffffffffffffffffffffffffffffffffffffffffffffffffffffff167f02c4d72b00000000000000000000000000000000000000000000000000000000179052516101799190610763565b6000604051808303816000865af19150503d80600081146101b6576040519150601f19603f3d011682016040523d82523d6000602084013e6101bb565b606091505b50509050806101f6576040517fdc92e83e00000000000000000000000000000000000000000000000000000000815260040160405180910390fd5b6040805185815273ffffffffffffffffffffffffffffffffffffffff851660208201527fff5a46b6e1cd43e460ea62b3848db298ea5a066f2bcb71c0c436c3e65c0daa77910160405180910390a150505050565b600080548190818061025b8361077f565b91905055905060008054905060405180608001604052808560200135815260200185606001602081019061028f91906107de565b63ffffffff1681526020016102aa60a08701608088016107de565b63ffffffff1681526020016102c260a0870187610804565b8080601f016020809104026020016040519081016040528093929190818152602001838380828437600092018290525093909452505084815260016020818152604092839020855181559085015191810180549386015163ffffffff908116640100000000027fffffffffffffffffffffffffffffffffffffffffffffffff00000000000000009095169316929092179290921790556060830151909150600282019061036f9082610912565b5060009150610393905061038e61038960a0880188610804565b610523565b610553565b90506040518060800160405280866020013581526020018660600160208101906103bd91906107de565b63ffffffff1681526020016103d860a08801608089016107de565b63ffffffff1681526020016103f060a0880188610804565b8080601f016020809104026020016040519081016040528093929190818152602001838380828437600092018290525093909452505085815260016020818152604092839020855181559085015191810180549386015163ffffffff908116640100000000027fffffffffffffffffffffffffffffffffffffffffffffffff00000000000000009095169316929092179290921790556060830151909150600282019061049d9082610912565b507feb0e3652e0f44f417695e6e90f2f42c99b65cd7169074c5a654b16b9748c3a4e9150508535848460208901356104db60608b0160408c01610a2c565b6104eb60808c0160608d016107de565b6104fb60a08d0160808e016107de565b883360405161051299989796959493929190610a50565b60405180910390a150909392505050565b60408051602081019091526000815261053f8260048186610b05565b81019061054c9190610b2f565b9392505050565b60607f92fd13387c7fe7befbc38d303d6468778fb9731bc4583f17d92989c6fcfdeaaa8260405160240161058c91511515815260200190565b604080517fffffffffffffffffffffffffffffffffffffffffffffffffffffffffffffffe08184030181529190526020810180517bffffffffffffffffffffffffffffffffffffffffffffffffffffffff167fffffffff000000000000000000000000000000000000000000000000000000009093169290921790915292915050565b6000806040838503121561062257600080fd5b82359150602083013573ffffffffffffffffffffffffffffffffffffffff8116811461064d57600080fd5b809150509250929050565b60006020828403121561066a57600080fd5b813567ffffffffffffffff81111561068157600080fd5b820160c0818503121561054c57600080fd5b7f4e487b7100000000000000000000000000000000000000000000000000000000600052604160045260246000fd5b7f4e487b7100000000000000000000000000000000000000000000000000000000600052603260045260246000fd5b6000604082018483526020604081850152818551808452606086019150828701935060005b8181101561073257845183529383019391830191600101610716565b5090979650505050505050565b60005b8381101561075a578181015183820152602001610742565b50506000910152565b6000825161077581846020870161073f565b9190910192915050565b60007fffffffffffffffffffffffffffffffffffffffffffffffffffffffffffffffff82036107d7577f4e487b7100000000000000000000000000000000000000000000000000000000600052601160045260246000fd5b5060010190565b6000602082840312156107f057600080fd5b813563ffffffff8116811461054c57600080fd5b60008083357fffffffffffffffffffffffffffffffffffffffffffffffffffffffffffffffe184360301811261083957600080fd5b83018035915067ffffffffffffffff82111561085457600080fd5b60200191503681900382131561086957600080fd5b9250929050565b600181811c9082168061088457607f821691505b6020821081036108bd577f4e487b7100000000000000000000000000000000000000000000000000000000600052602260045260246000fd5b50919050565b601f82111561090d57600081815260208120601f850160051c810160208610156108ea5750805b601f850160051c820191505b81811015610909578281556001016108f6565b5050505b505050565b815167ffffffffffffffff81111561092c5761092c610693565b6109408161093a8454610870565b846108c3565b602080601f831160018114610993576000841561095d5750858301515b7fffffffffffffffffffffffffffffffffffffffffffffffffffffffffffffffff600386901b1c1916600185901b178555610909565b6000858152602081207fffffffffffffffffffffffffffffffffffffffffffffffffffffffffffffffe08616915b828110156109e0578886015182559484019460019091019084016109c1565b5085821015610a1c57878501517fffffffffffffffffffffffffffffffffffffffffffffffffffffffffffffffff600388901b60f8161c191681555b5050505050600190811b01905550565b600060208284031215610a3e57600080fd5b813561ffff8116811461054c57600080fd5b60006101208b83528a602084015289604084015288606084015261ffff8816608084015263ffffffff80881660a085015280871660c0850152508060e0840152845180828501526101409150610aac818386016020890161073f565b817fffffffffffffffffffffffffffffffffffffffffffffffffffffffffffffffe0601f8301168501019250505073ffffffffffffffffffffffffffffffffffffffff83166101008301529a9950505050505050505050565b60008085851115610b1557600080fd5b83861115610b2257600080fd5b5050820193919092039150565b600060208284031215610b4157600080fd5b6040516020810181811067ffffffffffffffff82111715610b6457610b64610693565b60405282358015158114610b7757600080fd5b8152939250505056fea2646970667358221220fe88c4527423433925b1550320ed7f8d96d0795b08937351ad97ebf32b5da6e664736f6c63430008140033",
  "linkReferences": {},
  "deployedLinkReferences": {}
}