{
  "_format": "hh-sol-artifact-1",
  "contractName": "CoinFlip",
  "sourceName": "contracts/CoinFlip.sol",
  "abi": [
    {
      "inputs": [
        {
          "internalType": "address",
          "name": "_vrfCoordinator",
          "type": "address"
        },
        {
          "internalType": "bytes32",
          "name": "_keyHash",
          "type": "bytes32"
        },
        {
          "internalType": "uint256",
          "name": "_subscriptionId",
          "type": "uint256"
        }
      ],
      "stateMutability": "payable",
      "type": "constructor"
    },
    {
      "inputs": [],
      "name": "CoinFlip__AmountTooBig",
      "type": "error"
    },
    {
      "inputs": [],
      "name": "CoinFlip__BetAlreadyOngoing",
      "type": "error"
    },
    {
      "inputs": [],
      "name": "CoinFlip__BetOngoing",
      "type": "error"
    },
    {
      "inputs": [],
      "name": "CoinFlip__ContractNeedsETH",
      "type": "error"
    },
    {
      "inputs": [],
      "name": "CoinFlip__InsuffisantAmount",
      "type": "error"
    },
    {
      "inputs": [],
      "name": "CoinFlip__InvalidBetChoice",
      "type": "error"
    },
    {
      "inputs": [],
      "name": "CoinFlip__NoFundsToWithdraw",
      "type": "error"
    },
    {
      "inputs": [],
      "name": "CoinFlip__WithdrawFailed",
      "type": "error"
    },
    {
      "inputs": [
        {
          "internalType": "address",
          "name": "have",
          "type": "address"
        },
        {
          "internalType": "address",
          "name": "want",
          "type": "address"
        }
      ],
      "name": "OnlyCoordinatorCanFulfill",
      "type": "error"
    },
    {
      "inputs": [
        {
          "internalType": "address",
          "name": "have",
          "type": "address"
        },
        {
          "internalType": "address",
          "name": "owner",
          "type": "address"
        },
        {
          "internalType": "address",
          "name": "coordinator",
          "type": "address"
        }
      ],
      "name": "OnlyOwnerOrCoordinator",
      "type": "error"
    },
    {
      "inputs": [],
      "name": "Reentrancy",
      "type": "error"
    },
    {
      "inputs": [],
      "name": "ZeroAddress",
      "type": "error"
    },
    {
      "anonymous": false,
      "inputs": [
        {
          "indexed": true,
          "internalType": "address",
          "name": "player",
          "type": "address"
        },
        {
          "indexed": false,
          "internalType": "bool",
          "name": "victory",
          "type": "bool"
        },
        {
          "indexed": false,
          "internalType": "uint256",
          "name": "amount",
          "type": "uint256"
        }
      ],
      "name": "BetResult",
      "type": "event"
    },
    {
      "anonymous": false,
      "inputs": [
        {
          "indexed": true,
          "internalType": "address",
          "name": "owner",
          "type": "address"
        },
        {
          "indexed": false,
          "internalType": "uint256",
          "name": "amount",
          "type": "uint256"
        }
      ],
      "name": "ContractBalanceWithdrawn",
      "type": "event"
    },
    {
      "anonymous": false,
      "inputs": [
        {
          "indexed": false,
          "internalType": "address",
          "name": "vrfCoordinator",
          "type": "address"
        }
      ],
      "name": "CoordinatorSet",
      "type": "event"
    },
    {
      "anonymous": false,
      "inputs": [
        {
          "indexed": true,
          "internalType": "address",
          "name": "user",
          "type": "address"
        },
        {
          "indexed": true,
          "internalType": "uint256",
          "name": "depositAmount",
          "type": "uint256"
        },
        {
          "indexed": false,
          "internalType": "uint256",
          "name": "newBalance",
          "type": "uint256"
        }
      ],
      "name": "DepositToContract",
      "type": "event"
    },
    {
      "anonymous": false,
      "inputs": [
        {
          "indexed": false,
          "internalType": "uint256",
          "name": "requestId",
          "type": "uint256"
        },
        {
          "indexed": false,
          "internalType": "uint256",
          "name": "randomNumber",
          "type": "uint256"
        }
      ],
      "name": "GeneratedRandomNumber",
      "type": "event"
    },
    {
      "anonymous": false,
      "inputs": [
        {
          "indexed": true,
          "internalType": "address",
          "name": "player",
          "type": "address"
        },
        {
          "indexed": false,
          "internalType": "uint256",
          "name": "requestId",
          "type": "uint256"
        }
      ],
      "name": "NewIdRequest",
      "type": "event"
    },
    {
      "anonymous": false,
      "inputs": [
        {
          "indexed": true,
          "internalType": "address",
          "name": "from",
          "type": "address"
        },
        {
          "indexed": true,
          "internalType": "address",
          "name": "to",
          "type": "address"
        }
      ],
      "name": "OwnershipTransferRequested",
      "type": "event"
    },
    {
      "anonymous": false,
      "inputs": [
        {
          "indexed": true,
          "internalType": "address",
          "name": "from",
          "type": "address"
        },
        {
          "indexed": true,
          "internalType": "address",
          "name": "to",
          "type": "address"
        }
      ],
      "name": "OwnershipTransferred",
      "type": "event"
    },
    {
      "anonymous": false,
      "inputs": [
        {
          "indexed": false,
          "internalType": "address",
          "name": "player",
          "type": "address"
        },
        {
          "indexed": false,
          "internalType": "uint256",
          "name": "amount",
          "type": "uint256"
        }
      ],
      "name": "Withdrawal",
      "type": "event"
    },
    {
      "inputs": [],
      "name": "MIN_BET",
      "outputs": [
        {
          "internalType": "uint256",
          "name": "",
          "type": "uint256"
        }
      ],
      "stateMutability": "view",
      "type": "function"
    },
    {
      "inputs": [],
      "name": "acceptOwnership",
      "outputs": [],
      "stateMutability": "nonpayable",
      "type": "function"
    },
    {
      "inputs": [
        {
          "internalType": "uint256",
          "name": "_betChoice",
          "type": "uint256"
        }
      ],
      "name": "bet",
      "outputs": [],
      "stateMutability": "payable",
      "type": "function"
    },
    {
      "inputs": [],
      "name": "deposit",
      "outputs": [],
      "stateMutability": "payable",
      "type": "function"
    },
    {
      "inputs": [],
      "name": "getContractBalance",
      "outputs": [
        {
          "internalType": "uint256",
          "name": "",
          "type": "uint256"
        }
      ],
      "stateMutability": "view",
      "type": "function"
    },
    {
      "inputs": [],
      "name": "getPlayerBalance",
      "outputs": [
        {
          "internalType": "uint256",
          "name": "",
          "type": "uint256"
        }
      ],
      "stateMutability": "view",
      "type": "function"
    },
    {
      "inputs": [],
      "name": "owner",
      "outputs": [
        {
          "internalType": "address",
          "name": "",
          "type": "address"
        }
      ],
      "stateMutability": "view",
      "type": "function"
    },
    {
      "inputs": [
        {
          "internalType": "address",
          "name": "",
          "type": "address"
        }
      ],
      "name": "playersByAddress",
      "outputs": [
        {
          "internalType": "uint256",
          "name": "balance",
          "type": "uint256"
        },
        {
          "internalType": "uint256",
          "name": "betAmount",
          "type": "uint256"
        },
        {
          "internalType": "uint256",
          "name": "betChoice",
          "type": "uint256"
        },
        {
          "internalType": "address",
          "name": "playerAddress",
          "type": "address"
        },
        {
          "internalType": "bool",
          "name": "betOngoing",
          "type": "bool"
        }
      ],
      "stateMutability": "view",
      "type": "function"
    },
    {
      "inputs": [
        {
          "internalType": "uint256",
          "name": "requestId",
          "type": "uint256"
        },
        {
          "internalType": "uint256[]",
          "name": "randomWords",
          "type": "uint256[]"
        }
      ],
      "name": "rawFulfillRandomWords",
      "outputs": [],
      "stateMutability": "nonpayable",
      "type": "function"
    },
    {
      "inputs": [],
      "name": "s_vrfCoordinator",
      "outputs": [
        {
          "internalType": "contract IVRFCoordinatorV2Plus",
          "name": "",
          "type": "address"
        }
      ],
      "stateMutability": "view",
      "type": "function"
    },
    {
      "inputs": [
        {
          "internalType": "address",
          "name": "_vrfCoordinator",
          "type": "address"
        }
      ],
      "name": "setCoordinator",
      "outputs": [],
      "stateMutability": "nonpayable",
      "type": "function"
    },
    {
      "inputs": [
        {
          "internalType": "uint256",
          "name": "",
          "type": "uint256"
        }
      ],
      "name": "temps",
      "outputs": [
        {
          "internalType": "uint256",
          "name": "id",
          "type": "uint256"
        },
        {
          "internalType": "uint256",
          "name": "result",
          "type": "uint256"
        },
        {
          "internalType": "address",
          "name": "playerAddress",
          "type": "address"
        }
      ],
      "stateMutability": "view",
      "type": "function"
    },
    {
      "inputs": [
        {
          "internalType": "address",
          "name": "to",
          "type": "address"
        }
      ],
      "name": "transferOwnership",
      "outputs": [],
      "stateMutability": "nonpayable",
      "type": "function"
    },
    {
      "inputs": [],
      "name": "withdrawContractBalance",
      "outputs": [],
      "stateMutability": "nonpayable",
      "type": "function"
    },
    {
      "inputs": [],
      "name": "withdrawPlayerBalance",
      "outputs": [],
      "stateMutability": "nonpayable",
      "type": "function"
    }
  ],
  "bytecode": "0x60e0604052604051620019ae380380620019ae83398101604081905262000026916200020e565b8233806000816200007e5760405162461bcd60e51b815260206004820152601860248201527f43616e6e6f7420736574206f776e657220746f207a65726f000000000000000060448201526064015b60405180910390fd5b600080546001600160a01b0319166001600160a01b0384811691909117909155811615620000b157620000b18162000163565b5050506001600160a01b038116620000dc5760405163d92e233d60e01b815260040160405180910390fd5b600280546001600160a01b0319166001600160a01b039290921691909117905567016345785d8a00003410156200012657604051637b5b434760e01b815260040160405180910390fd5b6001600160a01b03831660805260a082905260c0819052600380543491906000906200015490849062000253565b909155506200027b9350505050565b336001600160a01b03821603620001bd5760405162461bcd60e51b815260206004820152601760248201527f43616e6e6f74207472616e7366657220746f2073656c66000000000000000000604482015260640162000075565b600180546001600160a01b0319166001600160a01b0383811691821790925560008054604051929316917fed8889f560326eb138920d842192f0eb3dd22b4f139c87a2c57538e05bae12789190a350565b6000806000606084860312156200022457600080fd5b83516001600160a01b03811681146200023c57600080fd5b602085015160409095015190969495509392505050565b808201808211156200027557634e487b7160e01b600052601160045260246000fd5b92915050565b60805160a05160c051611703620002ab6000396000610f2201526000610efc01526000610eb501526117036000f3fe6080604052600436106100e85760003560e01c806379ba50971161008a578063bfab3db911610059578063bfab3db914610369578063d0e30db01461037e578063d325101a14610386578063f2fde38b1461039b57600080fd5b806379ba5097146102bb5780638da5cb5b146102d05780638ea981171461031c5780639eccacf61461033c57600080fd5b80636f9fb98a116100c65780636f9fb98a1461015b578063718c49d5146101705780637365870b146101f3578063772a9afc1461020657600080fd5b80630b01517c146100ed5780631fe543e31461011e5780636540742f14610140575b600080fd5b3480156100f957600080fd5b50336000908152600460205260409020545b6040519081526020015b60405180910390f35b34801561012a57600080fd5b5061013e610139366004611433565b6103bb565b005b34801561014c57600080fd5b5061010b66038d7ea4c6800081565b34801561016757600080fd5b5060035461010b565b34801561017c57600080fd5b506101c261018b3660046114b2565b60056020526000908152604090208054600182015460029092015490919073ffffffffffffffffffffffffffffffffffffffff1683565b60408051938452602084019290925273ffffffffffffffffffffffffffffffffffffffff1690820152606001610115565b61013e6102013660046114b2565b610443565b34801561021257600080fd5b5061027b6102213660046114cb565b60046020526000908152604090208054600182015460028301546003909301549192909173ffffffffffffffffffffffffffffffffffffffff81169074010000000000000000000000000000000000000000900460ff1685565b6040805195865260208601949094529284019190915273ffffffffffffffffffffffffffffffffffffffff1660608301521515608082015260a001610115565b3480156102c757600080fd5b5061013e610761565b3480156102dc57600080fd5b5060005473ffffffffffffffffffffffffffffffffffffffff165b60405173ffffffffffffffffffffffffffffffffffffffff9091168152602001610115565b34801561032857600080fd5b5061013e6103373660046114cb565b61085e565b34801561034857600080fd5b506002546102f79073ffffffffffffffffffffffffffffffffffffffff1681565b34801561037557600080fd5b5061013e6109e8565b61013e610b57565b34801561039257600080fd5b5061013e610be4565b3480156103a757600080fd5b5061013e6103b63660046114cb565b610e15565b60025473ffffffffffffffffffffffffffffffffffffffff163314610433576002546040517f1cf993f400000000000000000000000000000000000000000000000000000000815233600482015273ffffffffffffffffffffffffffffffffffffffff90911660248201526044015b60405180910390fd5b61043e838383610e29565b505050565b3068929eee149b4bd2126854036104625763ab143c066000526004601cfd5b3068929eee149b4bd212685566038d7ea4c680003410156104af576040517f10c9d6e700000000000000000000000000000000000000000000000000000000815260040160405180910390fd5b60026104ba60035490565b6104c49190611566565b3411156104fd576040517f7046099e00000000000000000000000000000000000000000000000000000000815260040160405180910390fd5b801580159061050d575080600114155b15610544576040517feacd98e600000000000000000000000000000000000000000000000000000000815260040160405180910390fd5b33600081815260046020908152604091829020825160a0810184528154815260018201549281019290925260028101549282019290925260039091015473ffffffffffffffffffffffffffffffffffffffff8116606083015274010000000000000000000000000000000000000000900460ff1615801560808301526105f6576040517f7b3182c400000000000000000000000000000000000000000000000000000000815260040160405180910390fd5b73ffffffffffffffffffffffffffffffffffffffff808316606083018181526040808501878152600160808701818152346020808a01918252600097885260049052938620885181559351918401829055915160028401559251600392830180549251151574010000000000000000000000000000000000000000027fffffffffffffffffffffff0000000000000000000000000000000000000000009093169190961617179093558254909291906106b090849061157a565b90915550600090506106c0610eb1565b6000818152600560209081526040918290206002810180547fffffffffffffffffffffffff00000000000000000000000000000000000000001673ffffffffffffffffffffffffffffffffffffffff891690811790915590849055915183815292935090917edb1ec50be94c0b0a88f364dd237545bff0f79c5e41688d207c80e0389bfe43910160405180910390a25050503868929eee149b4bd212685550565b60015473ffffffffffffffffffffffffffffffffffffffff1633146107e2576040517f08c379a000000000000000000000000000000000000000000000000000000000815260206004820152601660248201527f4d7573742062652070726f706f736564206f776e657200000000000000000000604482015260640161042a565b60008054337fffffffffffffffffffffffff00000000000000000000000000000000000000008083168217845560018054909116905560405173ffffffffffffffffffffffffffffffffffffffff90921692909183917f8be0079c531659141344cd1fd0a4f28419497f9722a3daafe3b4186f6b6457e091a350565b60005473ffffffffffffffffffffffffffffffffffffffff16331480159061089e575060025473ffffffffffffffffffffffffffffffffffffffff163314155b1561092257336108c360005473ffffffffffffffffffffffffffffffffffffffff1690565b6002546040517f061db9c100000000000000000000000000000000000000000000000000000000815273ffffffffffffffffffffffffffffffffffffffff9384166004820152918316602483015291909116604482015260640161042a565b73ffffffffffffffffffffffffffffffffffffffff811661096f576040517fd92e233d00000000000000000000000000000000000000000000000000000000815260040160405180910390fd5b600280547fffffffffffffffffffffffff00000000000000000000000000000000000000001673ffffffffffffffffffffffffffffffffffffffff83169081179091556040519081527fd1a6a14209a385a964d036e404cb5cfb71f4000cdb03c9366292430787261be69060200160405180910390a150565b6109f0610fee565b600354600003610a2c576040517f5ec1b61200000000000000000000000000000000000000000000000000000000815260040160405180910390fd5b600060038190554790610a5460005473ffffffffffffffffffffffffffffffffffffffff1690565b73ffffffffffffffffffffffffffffffffffffffff168260405160006040518083038185875af1925050503d8060008114610aab576040519150601f19603f3d011682016040523d82523d6000602084013e610ab0565b606091505b5050905080610aeb576040517f1fac6ede00000000000000000000000000000000000000000000000000000000815260040160405180910390fd5b60005473ffffffffffffffffffffffffffffffffffffffff1673ffffffffffffffffffffffffffffffffffffffff167f9ca86e26e8d02952f920895df7583aa717e8ebc63cd0708c0879da89b9a0744583604051610b4b91815260200190565b60405180910390a25050565b34600003610b91576040517f10c9d6e700000000000000000000000000000000000000000000000000000000815260040160405180910390fd5b3460036000828254610ba3919061157a565b9091555050600354604051908152349033907f719a678c6170368d3e08a7171825b667d9f9b32520826d4fab3af939fef66e429060200160405180910390a3565b3068929eee149b4bd212685403610c035763ab143c066000526004601cfd5b3068929eee149b4bd21268553360008181526004602052604090206003015474010000000000000000000000000000000000000000900460ff1615610c74576040517f5b00e95f00000000000000000000000000000000000000000000000000000000815260040160405180910390fd5b73ffffffffffffffffffffffffffffffffffffffff81166000908152600460205260408120549003610cd2576040517f5ec1b61200000000000000000000000000000000000000000000000000000000815260040160405180910390fd5b73ffffffffffffffffffffffffffffffffffffffff811660008181526004602052604080822080548382556001820184905560028201849055600390910180547fffffffffffffffffffffff000000000000000000000000000000000000000000169055905190929083908381818185875af1925050503d8060008114610d75576040519150601f19603f3d011682016040523d82523d6000602084013e610d7a565b606091505b5050905080610db5576040517f1fac6ede00000000000000000000000000000000000000000000000000000000815260040160405180910390fd5b6040805173ffffffffffffffffffffffffffffffffffffffff85168152602081018490527f7fcf532c15f0a6db0bd6d0e038bea71d30d808c7d98cb3bf7268a95bf5081b65910160405180910390a15050503868929eee149b4bd2126855565b610e1d610fee565b610e2681611071565b50565b6000600283836000818110610e4057610e4061158d565b90506020020135610e5191906115bc565b60008581526005602052604090206001018190559050610e718185611166565b5060408051858152602081018390527f950c41a5e739a3e2fc2411de52a5b8ae053a697c52eab361a5e90e095fda638e910160405180910390a150505050565b60007f000000000000000000000000000000000000000000000000000000000000000073ffffffffffffffffffffffffffffffffffffffff16639b1c385e6040518060c001604052807f000000000000000000000000000000000000000000000000000000000000000081526020017f00000000000000000000000000000000000000000000000000000000000000008152602001600361ffff168152602001620186a063ffffffff168152602001600163ffffffff168152602001610f87604051806020016040528060001515815250611377565b8152506040518263ffffffff1660e01b8152600401610fa691906115d0565b6020604051808303816000875af1158015610fc5573d6000803e3d6000fd5b505050506040513d601f19601f82011682018060405250810190610fe9919061168a565b905090565b60005473ffffffffffffffffffffffffffffffffffffffff16331461106f576040517f08c379a000000000000000000000000000000000000000000000000000000000815260206004820152601660248201527f4f6e6c792063616c6c61626c65206279206f776e657200000000000000000000604482015260640161042a565b565b3373ffffffffffffffffffffffffffffffffffffffff8216036110f0576040517f08c379a000000000000000000000000000000000000000000000000000000000815260206004820152601760248201527f43616e6e6f74207472616e7366657220746f2073656c66000000000000000000604482015260640161042a565b600180547fffffffffffffffffffffffff00000000000000000000000000000000000000001673ffffffffffffffffffffffffffffffffffffffff83811691821790925560008054604051929316917fed8889f560326eb138920d842192f0eb3dd22b4f139c87a2c57538e05bae12789190a350565b600081815260056020908152604080832060029081015473ffffffffffffffffffffffffffffffffffffffff90811680865260048552838620845160a0810186528154815260018201549681019690965292830154938501849052600390920154908116606085015274010000000000000000000000000000000000000000900460ff1615156080840152918391829190879003611244576020810151600193506112129060026116a3565b91508181600001818151611226919061157a565b9052506003805483919060009061123e9084906116ba565b90915550505b600060208083018281526080840183815273ffffffffffffffffffffffffffffffffffffffff808916808652600490945260409485902086518155925160018401558486015160028401556060860151600390930180549251151574010000000000000000000000000000000000000000027fffffffffffffffffffffff000000000000000000000000000000000000000000909316939091169290921717905590517f883f4d0c1f1f46295aca1500eb9887530d302925a814aa0a107fc8ca8b77971d9061132190869086909115158252602082015260400190565b60405180910390a250506000848152600560205260408120818155600181019190915560020180547fffffffffffffffffffffffff00000000000000000000000000000000000000001690559150505b92915050565b60607f92fd13387c7fe7befbc38d303d6468778fb9731bc4583f17d92989c6fcfdeaaa826040516024016113b091511515815260200190565b604080517fffffffffffffffffffffffffffffffffffffffffffffffffffffffffffffffe08184030181529190526020810180517bffffffffffffffffffffffffffffffffffffffffffffffffffffffff167fffffffff000000000000000000000000000000000000000000000000000000009093169290921790915292915050565b60008060006040848603121561144857600080fd5b83359250602084013567ffffffffffffffff8082111561146757600080fd5b818601915086601f83011261147b57600080fd5b81358181111561148a57600080fd5b8760208260051b850101111561149f57600080fd5b6020830194508093505050509250925092565b6000602082840312156114c457600080fd5b5035919050565b6000602082840312156114dd57600080fd5b813573ffffffffffffffffffffffffffffffffffffffff8116811461150157600080fd5b9392505050565b7f4e487b7100000000000000000000000000000000000000000000000000000000600052601260045260246000fd5b7f4e487b7100000000000000000000000000000000000000000000000000000000600052601160045260246000fd5b60008261157557611575611508565b500490565b8082018082111561137157611371611537565b7f4e487b7100000000000000000000000000000000000000000000000000000000600052603260045260246000fd5b6000826115cb576115cb611508565b500690565b6000602080835283518184015280840151604084015261ffff6040850151166060840152606084015163ffffffff80821660808601528060808701511660a0860152505060a084015160c08085015280518060e086015260005b81811015611647578281018401518682016101000152830161162a565b5061010092506000838287010152827fffffffffffffffffffffffffffffffffffffffffffffffffffffffffffffffe0601f830116860101935050505092915050565b60006020828403121561169c57600080fd5b5051919050565b808202811582820484141761137157611371611537565b818103818111156113715761137161153756fea2646970667358221220893f7a16b28cb65c11a27691804e78256f7b0cc2bb850b0444782afe654a9cb964736f6c63430008140033",
  "linkReferences": {},
  "deployedLinkReferences": {}
}